{
  "_format": "hh-sol-artifact-1",
  "contractName": "LeaseContract",
  "sourceName": "contracts/LeaseContract.sol",
  "abi": [
    {
      "inputs": [
        {
          "internalType": "uint256",
          "name": "_rent",
          "type": "uint256"
        },
        {
          "internalType": "address",
          "name": "_tenant",
          "type": "address"
        }
      ],
      "stateMutability": "nonpayable",
      "type": "constructor"
    },
    {
      "anonymous": false,
      "inputs": [
        {
          "indexed": true,
          "internalType": "address",
          "name": "tenant",
          "type": "address"
        },
        {
          "indexed": false,
          "internalType": "uint256",
          "name": "amount",
          "type": "uint256"
        },
        {
          "indexed": false,
          "internalType": "uint256",
          "name": "timestamp",
          "type": "uint256"
        }
      ],
      "name": "RentPaid",
      "type": "event"
    },
    {
      "inputs": [],
      "name": "isActive",
      "outputs": [
        {
          "internalType": "bool",
          "name": "",
          "type": "bool"
        }
      ],
      "stateMutability": "view",
      "type": "function"
    },
    {
      "inputs": [],
      "name": "landlord",
      "outputs": [
        {
          "internalType": "address",
          "name": "",
          "type": "address"
        }
      ],
      "stateMutability": "view",
      "type": "function"
    },
    {
      "inputs": [],
      "name": "payRent",
      "outputs": [],
      "stateMutability": "payable",
      "type": "function"
    },
    {
      "inputs": [],
      "name": "rent",
      "outputs": [
        {
          "internalType": "uint256",
          "name": "",
          "type": "uint256"
        }
      ],
      "stateMutability": "view",
      "type": "function"
    },
    {
      "inputs": [],
      "name": "tenant",
      "outputs": [
        {
          "internalType": "address",
          "name": "",
          "type": "address"
        }
      ],
      "stateMutability": "view",
      "type": "function"
    },
    {
      "inputs": [],
      "name": "terminate",
      "outputs": [],
      "stateMutability": "nonpayable",
      "type": "function"
    }
  ],
  "bytecode": "0x608060405234801561001057600080fd5b5060405161093938038061093983398181016040528101906100329190610175565b336000806101000a81548173ffffffffffffffffffffffffffffffffffffffff021916908373ffffffffffffffffffffffffffffffffffffffff1602179055508160028190555080600160006101000a81548173ffffffffffffffffffffffffffffffffffffffff021916908373ffffffffffffffffffffffffffffffffffffffff1602179055506001600360006101000a81548160ff02191690831515021790555050506101b5565b600080fd5b6000819050919050565b6100f4816100e1565b81146100ff57600080fd5b50565b600081519050610111816100eb565b92915050565b600073ffffffffffffffffffffffffffffffffffffffff82169050919050565b600061014282610117565b9050919050565b61015281610137565b811461015d57600080fd5b50565b60008151905061016f81610149565b92915050565b6000806040838503121561018c5761018b6100dc565b5b600061019a85828601610102565b92505060206101ab85828601610160565b9150509250929050565b610775806101c46000396000f3fe6080604052600436106100555760003560e01c80630c08bf881461005a57806322f3e2d41461007157806382996d9f1461009c578063a709c4fe146100c7578063adf07791146100d1578063dc1997ea146100fc575b600080fd5b34801561006657600080fd5b5061006f610127565b005b34801561007d57600080fd5b5061008661022a565b6040516100939190610484565b60405180910390f35b3480156100a857600080fd5b506100b161023d565b6040516100be91906104b8565b60405180910390f35b6100cf610243565b005b3480156100dd57600080fd5b506100e661041f565b6040516100f39190610514565b60405180910390f35b34801561010857600080fd5b50610111610445565b60405161011e9190610514565b60405180910390f35b60008054906101000a900473ffffffffffffffffffffffffffffffffffffffff1673ffffffffffffffffffffffffffffffffffffffff163373ffffffffffffffffffffffffffffffffffffffff1614806101ce5750600160009054906101000a900473ffffffffffffffffffffffffffffffffffffffff1673ffffffffffffffffffffffffffffffffffffffff163373ffffffffffffffffffffffffffffffffffffffff16145b61020d576040517f08c379a0000000000000000000000000000000000000000000000000000000008152600401610204906105b2565b60405180910390fd5b6000600360006101000a81548160ff021916908315150217905550565b600360009054906101000a900460ff1681565b60025481565b600360009054906101000a900460ff16610292576040517f08c379a00000000000000000000000000000000000000000000000000000000081526004016102899061061e565b60405180910390fd5b600160009054906101000a900473ffffffffffffffffffffffffffffffffffffffff1673ffffffffffffffffffffffffffffffffffffffff163373ffffffffffffffffffffffffffffffffffffffff1614610322576040517f08c379a00000000000000000000000000000000000000000000000000000000081526004016103199061068a565b60405180910390fd5b6002543414610366576040517f08c379a000000000000000000000000000000000000000000000000000000000815260040161035d906106f6565b60405180910390fd5b60008054906101000a900473ffffffffffffffffffffffffffffffffffffffff1673ffffffffffffffffffffffffffffffffffffffff166108fc349081150290604051600060405180830381858888f193505050501580156103cc573d6000803e3d6000fd5b503373ffffffffffffffffffffffffffffffffffffffff167f33d9ffd7947b17c37c9905165c01183282058f1cb2252c9be395887d078572ad3442604051610415929190610716565b60405180910390a2565b600160009054906101000a900473ffffffffffffffffffffffffffffffffffffffff1681565b60008054906101000a900473ffffffffffffffffffffffffffffffffffffffff1681565b60008115159050919050565b61047e81610469565b82525050565b60006020820190506104996000830184610475565b92915050565b6000819050919050565b6104b28161049f565b82525050565b60006020820190506104cd60008301846104a9565b92915050565b600073ffffffffffffffffffffffffffffffffffffffff82169050919050565b60006104fe826104d3565b9050919050565b61050e816104f3565b82525050565b60006020820190506105296000830184610505565b92915050565b600082825260208201905092915050565b7f4f6e6c79206c616e646c6f7264206f722074656e616e742063616e207465726d60008201527f696e617465000000000000000000000000000000000000000000000000000000602082015250565b600061059c60258361052f565b91506105a782610540565b604082019050919050565b600060208201905081810360008301526105cb8161058f565b9050919050565b7f4c65617365206973206e6f742061637469766500000000000000000000000000600082015250565b600061060860138361052f565b9150610613826105d2565b602082019050919050565b60006020820190508181036000830152610637816105fb565b9050919050565b7f4f6e6c792074656e616e742063616e207061792072656e740000000000000000600082015250565b600061067460188361052f565b915061067f8261063e565b602082019050919050565b600060208201905081810360008301526106a381610667565b9050919050565b7f496e636f72726563742072656e7420616d6f756e740000000000000000000000600082015250565b60006106e060158361052f565b91506106eb826106aa565b602082019050919050565b6000602082019050818103600083015261070f816106d3565b9050919050565b600060408201905061072b60008301856104a9565b61073860208301846104a9565b939250505056fea26469706673582212208d46d927218e82d01d840e6fe8088b30748dc945922ac6ffc10fd9b22635ec1964736f6c63430008140033",
  "linkReferences": {},
  "deployedLinkReferences": {}
}